:1006D100526573706F6E6465723A002D00200000E0
:0706E10001020304050607F6
:1004EA00011803C100011B00080E6464646464649B
:0504FA0064640116011D
:04079B0075A0FF2224
:10065A00EFC39401401AEFD394085014EF9006DFC9
:10066A0093FF7401A807088002C333D8FCF452A090
:01067A00225D
:05000300007FF7DFFEA5
:0100080022D5
:06060600C2AB7FF47E018F
:04060C00AD07AC0684
:10061000D2B3E4FBFAED25E0FFEC33FEC3EB9FEA37
:100620009E5011C2B3120003D2B31200030BBB00E1
:06063000010A80E1D2B3D3
:0106360022A1
:10001E001206E812075112073D12079B851817D2D8
:10002E00B37BFF7A0679D17D017F011206377BFF04
:10003E007A0679DC7D0E7F02120637E51AFB7A000E
:10004E00753B017D0D7F02120699E518FB7A00754E
:10005E003B027D0F7F02120699E51B600FFB7A00B3
:10006E00753B017D107F01120699800D7BFF7A068C
:10007E0079DE7D107F01120637E516FB7A00753B9F
:10008E00017D017F02120699740D2516F8E6FB7AA2
:10009E0000753B037D037F0212069912078F8F1D99
:1000AE00E51D6029B401106319FFD2AB120608C218
:1000BE0000E4F51B12079BE51DB40211E4F519854A
:1000CE001718F51AD2ABC200F51B12079B12079533
:1000DE008F1CE51C700302002FE51A6003020194C9
:1000EE00E5197003020194300003020194E51CC36C
:1000FE0094015003020194E51CD3940840030201BD
:10010E0094E51C14B40800400302002F90012875DA
:10011E00F003A4C58325F0C5837302014002014A92
:10012E0002015402015E02016802017202017C02A8
:10013E000186751A011206067F018044751A021295
:10014E0006067F02803A751A031206067F03803078
:10015E00751A041206067F048026751A0512060605
:10016E007F05801C751A061206067F068012751A08
:10017E00071206067F078008751A081206067F0802
:10018E0012065A02002FE5196003300017E51CC352
:10019E0094014010E51CD394085009851C1B1206CF
:1001AE000802002FE51C24F6602214602B14603D1B
:1001BE001460562404600302002F0516E516D3942E
:1001CE0008500302002F75160102002F740D25161C
:1001DE00F8740A26F602002F740D2516F8E6C3945D
:1001EE000A500302002F74F626F602002FE519605E
:1001FE000302002F30000302002FE518C3943C5079
:10020E0002051885181702002FE519600302002F4A
:10021E0030000302002FE518D39400400215188514
:05022E00181702002F6B
:03000B000203539A
:10035300C0E0C0F0C083C082C0D075D000C000C070
:0D03630001C002C003C004C005C006C007F1
:10037000758A18758CFC0509E50970020508050BDE
:10038000E50B7002050AD39428E50A94004009752C
:100390000A00750B00120729D3E509941EE508949D
:0C03A000004009750800750900120715DF
:1003AC00D007D006D005D004D003D002D001D000A5
:0B03BC00D0D0D082D083D0F0D0E0324F
:03001B0002048C50
:10048C00C0E0C0D075D000C002C003C004C005C01D
:03049C0006C00790
:10049F00758BCD758DD4E519603020002D050DE5D8
:1004AF000D7002050CC394E8E50C9403401C750C09
:1004BF0000750D00E518D3940040041518800BD279
:0A04CF000012060675190012079BC3
:1004D900D007D006D005D004D003D002D0D0D0E0C8
:0104E90032E0
:1004FF000922000A0A0A0A0A0A0A0A0C2B3F065B9B
:0C050F004F666D7D077F6F0040012101E9
:09078600AE0574222FF8A606222C
:1003C700E4F580EF14B4080050549003DF75F00390
:1003D700A4C58325F0C583730203F70203FB020359
:1003E700FF02040302040702040F02041702041F9A
:1003F700D2A4800ED2A48012D2A48016D2A4801ACE
:10040700C2A4D2A3D2A28016C2A4D2A3C2A2800E33
:10041700C2A4C2A3D2A28006C2A4C2A3C2A2742B42
:060427002DF8E6F580222D
:1006B60074222521F8E6FD7C00AF211203C705212F
:0A06C600E521C394094003752101EA
:0106D0002207
:0C051B00014700014800014900014A00AE
:05078F00E4AF4CF54C45
:010794002242
:0B000E00E4FF20B1010F20B0027F02D0
:0100190022C4
:1007150085484712000E8F48E5476007E548700396
:0307250085474CB9
:0107280022AE
:05079500AF4BE4F54B41
:01079A00223C
:10042D00E4FF7590FFC2972093010F2092027F0287
:10043D002091027F032090027F04D2977590FFC216
:10044D00962093027F052092027F062091027F075E
:10045D002090027F08D2967590FFC2952093027F5F
:10046D00092092027F0A2091027F0B2090027F0CBF
:0E047D00D2957590FFC2942093027F0DD29409
:01048B00224E
:10072900854A4912042D8F4AE5496007E54A700355
:0307390085494BA4
:01073C00229A
:1007510053890F758BCD758DD4C28FD28ED2ABD20A
:02076100BB22B9
:06076300C2B48F80D2B683
:080769007F027EEFDEFEDFFCE3
:010771002265
:0A077200C2B5120763C2B6020769A0
:10067B00CFCDCFCECCCE1202727C007D0A1202728D
:04068B00ED2430FF2B
:0A068F00D2B5120763C2B602076974
:1006FF00AE07BE0104ED148006BE0209ED243F448F
:06070F0080FF12077222B8
:10073D007F381207727F0C1207727F061207727FC5
:04074D00010207722C
:0A077C00AC031206FFAF0402068F63
:060637008B378A38893977
:10063D001206FFE4FDAB37AA38A9398D8275830008
:0C064D00120233FF600612068F0D80E9D8
:01065900227E
:0C05D3007F0AEA24FFFDE434FFFC7E00F8
:0805DF008E3C8F3D8C3E8D3FE8
:1005E7007F017E00E4FBEBC3953FE53E6480F87432
:0E05F7008098500AAC3CAD3D1202600B80E8CB
:0106050022D2
:040699008A398B3AD5
:10069D001206FFAA3BEAD39400400D1205D3AC39E4
:0806AD00AD3A12067B1A80ED44
:0106B5002222
:100528001206FFC3EA64809480400B7F2B12068F6B
:100538008A458B46800E7F2D12068FC3E49BF546B5
:10054800E49AF545AA44EAD39400400D1205D3ACC9
:0905580045AD4612067B1A80ED48
:010561002277
:040562008A4F8B50E1
:100566001206FFAA51EAD3940040297F101205D53E
:10057600AC4FAD50CFCDCFCECCCE120272EF540FD2
:10058600FEC3940AEE5004243080022437FF12067C
:040596008F1A80D167
:01059A00223E
:04059B008A548B559E
:10059F001206FFAA56EAD394004028EA24FFFDE48E
:1005AF0034FFFC7F027E001205DFAC54AD55CFCD7A
:1005BF00CFCECCCE120272EF54012430FF12068F31
:0305CF001A80D2BD
:0105D2002206
:1006E8005389F0438901758A18758CFCC28DD28CA8
:0706F800D2A9D2AFC2B92262
:030000000202C732
:0C02C700787FE4F6D8FD75815602030E26
:10023300BB010CE58229F582E5833AF583E0225080
:1002430006E92582F8E622BBFE06E92582F8E222CA
:0D025300E58229F582E5833AF583E49322E4
:10026000EF8DF0A4A8F0CF8CF0A428CE8DF0A42EB2
:02027000FE226C
:10027200BC000BBE0029EF8DF084FFADF022E4CC70
:10028200F875F008EF2FFFEE33FEEC33FCEE9DEC39
:10029200984005FCEE9DFE0FD5F0E9E4CEFD22ED7F
:1002A200F8F5F0EE8420D21CFEADF075F008EF2FC9
:1002B200FFED33FD4007985006D5F0F222C398FDBA
:0502C2000FD5F0EA2257
:1002D30002001EE493A3F8E493A34003F68001F223
:1002E30008DFF48029E493A3F85407240CC8C3332C
:1002F300C4540F4420C8834004F456800146F6DFFB
:10030300E4800B01020408102040809004EAE47E9C
:10031300019360BCA3FF543F30E509541FFEE493EF
:10032300A360010ECF54C025E060A840B8E493A3B6
:10033300FAE493A3F8E493A3C8C582C8CAC583CAE1
:10034300F0A3C8C582C8CAC583CADFE9DEE780BE99
:0105270000D3
:00000001FF
